:0400000089EF00F094
:10000800FACF15F0FBCF16F0E9CF17F0EACF18F0CA
:10001800E1CF19F0E2CF1AF0D9CF1BF0DACF1CF0FC
:10002800F3CF1DF0F4CF1EF0F6CF1FF0F7CF20F07E
:10003800F8CF21F0F5CF22F09EAA4AD0000E026E2A
:10004800010E016EF8EC0CF0236E0101000E432442
:10005800D96E0101010E4420DA6E23C0DFFF434A46
:10006800442A010E00016027000E000161230001EF
:10007800622300016323000E256E000E246E000E1D
:10008800245C100E2558D8B023D0000E0B6E010E3C
:100098000A6E530E0C6E000E0D6E24C00EF025C0B5
:1000A8000FF00101000E2424D96E0101010E252054
:1000B800DA6EDF50106EA6EC0AF0680E146EE40ECD
:1000C800E82EFED7142EFCD700D0244A252AD7D7ED
:1000D80022C0F5FF21C0F8FF20C0F7FF1FC0F6FFC0
:1000E8001EC0F4FF1DC0F3FF1CC0DAFF1BC0D9FF00
:1000F8001AC0E2FF19C0E1FF18C0EAFF17C0E9FF04
:0E01080016C0FBFF15C0FAFF1100D9EF0AF078
:101000000001000A006400E8031027596F7520747E
:10101000727920746F2061636365737320616E2041
:101020006164647265737320776869636820646FB4
:1010300065736E27742065786973742E0057656C2C
:10104000636F6D6520746F207468652053656973E4
:101050006D6963207461626C65205357004545508B
:10106000524F4D2077726974652070726F6365739B
:1010700073206661696C65642E0052656164696EF7
:101080006720646174612066726F6D20454550521F
:101090004F4D2E2E2E0046696C6C696E67204545BB
:1010A00050524F4D207769746820646174612E2E10
:1010B0002E0052656164696E672066696C6C6564B8
:1010C00020454550524F4D002D2D2D2D2D2D2D2DD0
:1010D0002D2D2D2D2D2D2D2D2D2D2D2D00526561DC
:1010E00064696E67207375636365737366756C00FE
:1010F0002563002564000000A7EC0BF0D00E000172
:10110000A46FCA0EE82EFED7A42FFCD7100E000144
:10111000976F3D0E0001966F000E0001996F010E52
:101120000001986F8CEC0CF0100E0001976FC80E48
:101130000001966F000E0001996F010E0001986F7B
:101140008CEC0CF0000E0001A76F000E0001A66FE2
:101150000001A751800A7D0FE80ED8B4A65DD8B073
:101160000DD0680E0001A46FE40EE82EFED7A42F68
:10117000FCD700D00001A64BA72BEAD7100E000128
:10118000976FB20E0001966F000E0001996F010E6D
:101190000001986F8CEC0CF0000E0001A96F000E9E
:1011A0000001A86F000E0001A85D100E0001A959F2
:1011B000D8B02BD0000E00019B6F010E00019A6F7A
:1011C000530E00019C6F000E00019D6FA8C09EF0A1
:1011D000A9C09FF056EC0AF00001A56F000E0001B7
:1011E000916F010E0001906F0001A551EFEC0BF023
:1011F000680E0001A46FE40EE82EFED7A42FFCD7E2
:1012000000D00001A84BA92BCDD7100E0001976F7D
:10121000DD0E0001966F000E0001996F010E0001B6
:10122000986F8CEC0CF08ED7000E0001976F000EBB
:101230000001966F9D8A16D0000E0001976F670E11
:101240000ED0000E0001976F330E09D0000E000182
:10125000976F100E04D0000E0001976F080E00016A
:10126000966F49D0000192C094F0000193C095F0B0
:1012700000019551250AD8B40AD06E0AD8B40DD011
:10128000890AD8B410D0230AD8B413D034D00001BE
:101290009451800AD8B4D0D72ED000019451000ABE
:1012A000D8B4CFD728D000019451000AD8B4D3D7EE
:1012B00022D000019451000AD8B4C8D71CD0948C15
:1012C000948E0F013A9D0F013A9FAC98AB8E9D8A88
:1012D000AC94B89696C0AFFFAC8AAB881200938CE2
:1012E000938E718EA38A72987294709696C075FFD1
:1012F000728A71881200000190C094F0000191C0C0
:1013000095F000019551000AD8A4120000019451F3
:10131000010AD8B4D4D7030AD8A41200E0D760D009
:101320009EA8FED7000190C0F6FF000191C0F7FF14
:10133000000EF86E0F0EF76403D00800F55005D0CC
:10134000F6CFE9FFF7CFEAFFEF50AD6E0001904B0B
:10135000912B000190C0F6FF000191C0F7FF000E35
:10136000F86E0F0EF76403D00800F55005D0F6CFE5
:10137000E9FFF7CFEAFFEF500009D8B41200D0D749
:10138000A4A8FED7000190C0F6FF000191C0F7FFAE
:10139000000EF86E0F0EF76403D00800F55005D06C
:1013A000F6CFE9FFF7CFEAFFEF50736E0001904BE5
:1013B000912B000190C0F6FF000191C0F7FF000ED5
:1013C000F86E0F0EF76403D00800F55005D0F6CF85
:1013D000E9FFF7CFEAFFEF500009D8B41200D0D7E9
:1013E000000192C094F0000193C095F00001955166
:1013F000000AD8A4120000019451010AD8B4A9D758
:10140000030AD8A41200D5D73DD094C090F095C05F
:1014100091F032EC0BF0C58694C090F095C091F03D
:1014200032EC0BF0C9CF99F094C090F095C091F0D8
:1014300032EC0BF000019651D8B407D094C090F074
:1014400095C091F0C2EC0CF006D094C090F095C01D
:1014500091F0A7EC0CF00001995112006B8694C03A
:1014600090F095C091F032EC0BF06FCF99F094C0F2
:1014700090F095C091F032EC0BF000019951120000
:10148000630E1200000194C097F0000195C098F01F
:1014900000019851000AD8A4F3D700019751010A1E
:1014A000D8B4B3D7030AD8B4D9D7EAD79AC094F03E
:1014B0009BC095F031EC0CF000019D45E846FC0B1B
:1014C00000019C139AC094F09BC095F000019C51C0
:1014D00000019C2507EC0BF09AC094F09BC095F09E
:1014E00000019FC0A0F0A0C0A1F00001A26B00010C
:1014F000A15107EC0BF09AC094F09BC095F000014D
:101500009E5107EC0BF09AC094F09BC095F031EC23
:101510000CF09AC094F09BC095F0D88000019C35E7
:1015200007EC0BF09AC094F09BC095F0000E000100
:10153000966F04EC0AF00001A36F9AC094F09BC070
:1015400095F010EC0CF00001A35112000AC005F058
:101550000BC006F06FEC0CF00D44E846FC0B0C12CF
:101560000AC005F00BC006F00C500C2481EC0BF007
:101570000AC005F00BC006F00FC011F011C012F048
:10158000136A125081EC0BF00AC005F00BC006F094
:101590000E5081EC0BF00AC005F00BC006F01050A5
:1015A00081EC0BF00AC005F00BC006F052EC0CF019
:1015B000120002EE00F011EE00F0EE6AE550E1508C
:1015C000FCE1E250FAE101EE00F011EE00F0EE6A0B
:1015D000E550E150FCE1E250FAE100EE60F0300E3F
:1015E000EE6AE806FDE100EE26F0220EEE6AE8065D
:1015F000FDE1580EF66E1A0EF76E000EF86E090039
:10160000F5CF48F0000EF86E00017CEF08F0000105
:10161000986F14D094C090F095C091F032EC0BF01C
:1016200098C0C9FF120098C06FFF6DB0FED794C07C
:1016300090F095C091F032EC0BF01200000194C0D4
:1016400096F0000195C097F000019751000AD8A4C8
:10165000120000019651010AD8B4DCD7030AD8A4BD
:101660001200E1D714D0C5CF92F01F0E00019217DF
:10167000D8A4F9D7C7A41200F6D76BCF92F01F0EEB
:1016800000019217D8A4F9D76DA41200F6D7000173
:1016900090C092F0000191C093F000019351000AB4
:1016A000D8A4120000019251010AD8B4DCD7030A71
:1016B000D8A41200E2D711D094869488C00EC76EC9
:1016C000280EC66E090EC86E1200938293846D8E2A
:1016D000280E6C6E270E6E6E1200000190C092F004
:1016E000000191C093F000019351000AD8A41200A8
:1016F00000019251010AD8B4DFD7030AD8A412001E
:10170000E4D7096E14D005C001F006C002F0CCEC9D
:101710000BF009C0C9FF120009C06FFF6DB0FED702
:1017200005C001F006C002F0CCEC0BF0120005C0C1
:1017300007F006C008F00850000AD8A412000750AD
:10174000010AD8B4E0D7030AD8A41200E5D722ECE6
:101750000DF0DDEC0CF0000E0001916F000E0001A9
:10176000906F13EC0DF0000E0001916F010E00015F
:10177000906FC20E0001936F000E0001926F14EC87
:1017800009F027EC0DF0000E0001916F010E000131
:10179000906F5BEC0BF0120012D0C5CF03F01F0E60
:1017A0000316D8A4FAD7C7A41200F7D76BCF03F05B
:1017B0001F0E0316D8A4FAD76DA41200F7D701C0E4
:1017C00003F002C004F00450000AD8A41200035031
:1017D000010AD8B4E2D7030AD8A41200E7D700015F
:1017E000946F0AD0ACA2FED794C0ADFF120072A2D3
:1017F000FED794C073FF1200000190C092F0000168
:1018000091C093F000019351000AD8A41200000186
:101810009251010AD8B4E6D7030AD8A41200E7D738
:101820000CD094C090F095C091F032EC0BF0C584D0
:1018300012006B846BA41200FDD7000194C096F0D7
:10184000000195C097F000019751000AD8A412003A
:1018500000019651010AD8B4E4D7030AD8A41200B3
:10186000E8D70CD094C090F095C091F032EC0BF01A
:10187000C58012006B806BA01200FDD7000194C0E0
:1018800096F0000195C097F000019751000AD8A486
:10189000120000019651010AD8B4E4D7030AD8A473
:1018A0001200E8D70CD005C001F006C002F0CCEC65
:1018B0000BF0C58412006B846BA41200FDD705C029
:1018C00007F006C008F00850000AD8A4120007501C
:1018D000010AD8B4E8D7030AD8A41200ECD70CD078
:1018E00005C001F006C002F0CCEC0BF0C580120080
:1018F0006B806BA01200FDD705C007F006C008F092
:101900000850000AD8A412000750010AD8B4E8D73A
:10191000030AD8A41200ECD7000197C091F000018F
:1019200096C090F098C092F099C093F08FEC09F0B7
:1019300098C090F099C091F00D0EEFEC0BF098C0AC
:1019400090F099C091F00A0EEFEC0BF0120006D067
:10195000C58AC58812006B8A6B881200000190C08E
:1019600092F0000191C093F000019351000AD8A4B5
:10197000120000019251010AD8B4EAD7030AD8A490
:101980001200E9D706D0C59AC58812006B9A6B88F9
:101990001200000190C092F0000191C093F000018C
:1019A0009351000AD8A4120000019251010AD8B440
:1019B000EAD7030AD8A41200E9D7948A96949390A0
:1019C0009280928292849286928A96800F013881C8
:1019D0000F0138830F0138850F0138870F01388BCD
:1019E0000F013C8194869488000E0F013A6F12001B
:1019F0000AD0AECF46F04650120074CF47F04750A1
:101A00001200FF0E120001C003F002C004F00450E7
:101A1000000AD8A4F6D70350010AD8B4EAD7030ABB
:101A2000D8B4EBD7EED700019045E846FC0BC26E68
:101A3000000EC16EC08EC096C088C09AC080C082A1
:101A4000C0841200D388D38AD38C9B8C1200F28E70
:0A1A5000F28CD08E9D8A1200610016
:020000040020DA
:08000000FFFFFFFFFFFFFFFF00
:020000040030CA
:0E000000FF291F3FFFBF81FF0FC00FE00F4021
:00000001FF
