:0400000051EF00F0CC
:10000800FACF3BF0FBCF3CF0E9CF3DF010EF09F021
:10001800D8CF2AF0E8CF2BF0E0CF2CF0FACF2DF094
:10002800FBCF2EF0E9CF2FF0EACF30F0E1CF31F05F
:10003800E2CF32F0D9CF33F0DACF34F0F3CF35F066
:10004800F4CF36F0F6CF37F0F7CF38F0F8CF39F0F5
:10005800F5CF3AF03AC0F5FF39C0F8FF38C0F7FFDE
:1000680037C0F6FF36C0F4FF35C0F3FF34C0DAFFFF
:1000780033C0D9FF32C0E2FF31C0E1FF30C0EAFF30
:100088002FC0E9FF2EC0FBFF2DC0FAFF2CC0E0FFF8
:0E0098002BC0E8FF2AC0D8FF10009EEF09F031
:101000000001000A006400E8031027596F7520747E
:10101000727920746F2061636365737320616E2041
:101020006164647265737320776869636820646FB4
:1010300065736E27742065786973742E0057656C2C
:10104000636F6D6520746F207468652053656973E4
:101050006D6963207461626C65205357004545508B
:10106000524F4D2077726974652070726F6365739B
:1010700073206661696C65642E000D0A00256400AA
:101080000000000E506E000E4F6E11D0000E506E1C
:10109000670E0BD0000E506E330E07D0000E506E50
:1010A000100E03D0000E506E080E4F6E42D04BC093
:1010B0004DF04CC04EF04E50250AD8B40AD06E0AFE
:1010C000D8B40CD0890AD8B40ED0230AD8B410D022
:1010D00030D04D50800AD8B4D9D72BD04D50000A0B
:1010E000D8B4D8D726D04D50000AD8B4DBD721D0F9
:1010F0004D50000AD8B4D2D71CD0948C948E0F01D6
:101100003A9D0F013A9FAC98AB8E9D8AAC94B896ED
:101110004FC0AFFFAC8AAB881200938C938E718E58
:10112000A38A7298729470964FC075FF728A718804
:10113000120049C04DF04AC04EF04E50000AD8A4EB
:1011400012004D50010AD8B4D8D7030AD8A412000F
:10115000E4D756D09EA8FED749C0F6FF4AC0F7FF95
:10116000000EF86E0F0EF76403D00800F55005D09E
:10117000F6CFE9FFF7CFEAFFEF50AD6E494A4A2AB2
:1011800049C0F6FF4AC0F7FF000EF86E0F0EF76475
:1011900003D00800F55005D0F6CFE9FFF7CFEAFFFE
:1011A000EF500009D8B41200D5D7A4A8FED749C083
:1011B000F6FF4AC0F7FF000EF86E0F0EF76403D07B
:1011C0000800F55005D0F6CFE9FFF7CFEAFFEF5062
:1011D000736E494A4A2A49C0F6FF4AC0F7FF000E1B
:1011E000F86E0F0EF76403D00800F55005D0F6CF67
:1011F000E9FFF7CFEAFFEF500009D8B41200D5D7C6
:101200004BC04DF04CC04EF04E50000AD8A4120016
:101210004D50010AD8B4B4D7030AD8A41200DBD7C2
:10122000EACF3EF0E1CF3FF0E2CF40F0D9CF41F03E
:10123000DACF42F0F3CF43F0F4CF44F0F6CF45F0ED
:10124000F7CF46F0F8CF47F0F5CF48F048C0F5FFAC
:1012500047C0F8FF46C0F7FF45C0F6FF44C0F4FFA3
:1012600043C0F3FF42C0DAFF41C0D9FF40C0E2FFF4
:101270003FC0E1FF3EC0EAFF3DC0E9FF3CC0FBFFCD
:101280003BC0FAFF1100948A9694939092809282C8
:1012900092849286928A96800F0138810F0138835A
:1012A0000F0138850F0138870F01388B0F013C8102
:1012B000120050C04AF04FC049F051C04BF052C02C
:1012C0004CF0A9EC08F0100E4A6E7A0E496E51C02F
:1012D0004BF052C04CF0A9EC08F01200A9EC09F058
:1012E00043EC09F0000E4A6E010E496EC20E4C6EC0
:1012F000000E4B6E41EC08F0000E4A6E000E496E77
:1013000083EC09F012004944E846FC0BC26E000E63
:10131000C16EC08EC096C088C09AC080C082C08492
:1013200012006EEC09F0100E506E3D0E4F6E000E66
:10133000526E010E516E59EC09F0FFD700EE01F02C
:10134000290EEE6AE806FDE1000EF86E000191EF4D
:0C13500009F0D388D38AD38C9B8C120048
:020000040020DA
:08000000FFFFFFFFFFFFFFFF00
:020000040030CA
:0E000000FF291F3FFFBF81FF0FC00FE00F4021
:00000001FF
